:100000000C94D6010C94ED010C94ED010C94ED01CF
:100010000C94ED010C94ED010C94ED010C94ED01A8
:100020000C94ED010C94ED010C94ED010C94ED0198
:100030000C94ED010C94ED010C94ED010C94ED0188
:100040000C94ED010C94ED010C94ED010C94ED0178
:100050000C94ED010C94ED010C94ED010C94ED0168
:100060000C94ED010C94ED010C94ED010C94ED0158
:100070000C94ED010C94ED010C94ED010C94ED0148
:100080000C94ED010C94ED010C94ED0100000000C6
:100090000000005F00000007000700147F147F14B9
:1000A000242A7F2A122313086462364955225000FD
:1000B00005030000001C2241000041221C00082A08
:1000C0001C2A0808083E08080050300000080808EC
:1000D0000808003030000020100804023E51494555
:1000E0003E00427F400042615149462141454B312B
:1000F0001814127F1027454545393C4A49493001BB
:10010000710905033649494936064949291E003611
:100110003600000056360000000814224114141462
:100120001414412214080002015109063249794190
:100130003E7E1111117E7F494949363E414141229F
:100140007F4141221C7F494949417F090901013E04
:10015000414151327F0808087F00417F4100204023
:10016000413F017F081422417F404040407F02040C
:10017000027F7F0408107F3E4141413E7F0909090B
:10018000063E4151215E7F091929464649494931B8
:1001900001017F01013F4040403F1F2040201F7F61
:1001A0002018207F6314081463030478040361514A
:1001B00049454300007F4141020408102041417F2E
:1001C00000000402010204404040404000010204DB
:1001D0000020545454787F484444383844444420E0
:1001E000384444487F3854545418087E09010208A2
:1001F0001454543C7F0804047800447D400020409F
:10020000443D00007F10284400417F40007C0418DA
:1002100004787C0804047838444444387C1414146A
:1002200008081414187C7C0804040848545454200A
:10023000043F4440203C4040207C1C2040201C3C8B
:100240004030403C44281028440C5050503C4464FA
:10025000544C44000836410000007F000000413645
:1002600008000201020402081C2A08087E1111116C
:100270007E7F494949337F494949367F010101035E
:10028000E0514F41FF7F4949494977087F08774945
:10029000494949367F1008047F7C2112097C7F0878
:1002A00014224120413F017F7F020C027F7F08081A
:1002B000087F3E4141413E7F0101017F7F090909DD
:1002C000063E4141412201017F0101274848483F44
:1002D0001C227F221C63140814637F404040FF07E8
:1002E0000808087F7F407F407F7F407F40FF017F7D
:1002F0004848307F4830007F7F48483000224149DD
:10030000493E7F083E413E462919097F20545454F6
:10031000783C4A4A49317C545428007C0404040C3B
:10032000E0544C44FC38545454086C107C106C4419
:10033000445454287C2010087C78422412787C1085
:1003400028440020443C047C7C0810087C7C10106D
:10035000107C38444444387C0404047C7C14141419
:1003600008384444444404047C04040C5050503C79
:1003700018247E241844281028447C404040FC0C5B
:100380001010107C7C407C407C7C407C40FC047CD9
:100390005050207C5020007C7C5050200028445439
:1003A00054387C10384438085434147C11241FBE4F
:1003B000CFEFD0E1DEBFCDBF11E0A0E0B1E0ECE6D1
:1003C000F6E000E00BBF02C007900D92A231B1072A
:1003D000D9F70E9417030C9434030C940000AE98D4
:1003E000AC98882311F0AD9A01C0AD98AC9A90E01A
:1003F0002AE5AC9867FF02C0AD9A01C0AD98AC9AEF
:10040000822F8A95F1F79F5F983011F0660FF1CF38
:10041000AE9A0895CF93DF9380E060E40E94EF01ED
:1004200080E060EB0E94EF0180E060E10E94EF015C
:1004300080E060E00E94EF01C0E0D0E081E060E099
:100440000E94EF01219683E0C036D807B9F7DF910B
:10045000CF91089584B3806F84BBAE98AF9882EE3D
:1004600094E00197F1F7AF9A80E062EE0E94EF010D
:1004700080E06AE30E94EF0180E06FEE0E94EF01EE
:1004800080E064E00E94EF0180E060ED0E94EF01F7
:1004900080E060E20E94EF0180E060E90E94EF01ED
:1004A00080E064EA0E94EF0180E06FE20E94EF01C9
:1004B00080E060E40E94EF0180E060EB0E94EF01C9
:1004C00080E060E10E94EF0180E060E00E94EF01C7
:1004D00080E06CEA0E94EF0180E067E00E94EF019B
:1004E00080E06FEA0E94EF010E940A0208950F93D4
:1004F0001F93CF93DF93982F87FD905485E0989FAB
:10050000C0011124EC01C451D0408C010B591040A2
:1005100004571F4FFE01649181E00E94EF01219674
:10052000C017D107B9F781E060E00E94EF01DF91C9
:10053000CF911F910F910895EF92FF921F93CF9348
:10054000DF93982F87FD905485E0989FC001112478
:10055000EC01C451D04025E6E22E2FEFF22EE80E3A
:10056000F91E8CE890E0E80EF91EFE01149181E07E
:10057000612F0E94EF0181E0612F0E94EF0121961F
:10058000CE15DF0591F781E060E00E94EF01DF9179
:10059000CF911F91FF90EF900895CF93DF93EC01DF
:1005A00003C021960E94770288818823D1F7DF91CA
:1005B000CF910895CF93DF93EC0103C00E9477029F
:1005C0002196FE0184918823C9F7DF91CF91089588
:1005D000CF93DF93EC0103C021960E949C02888197
:1005E0008823D1F7DF91CF9108951F9396E0899FDB
:1005F000102D11246F70606B80E00E94EF01612F5D
:100600006F7080E00E94EF0112951770106180E01A
:10061000612F0E94EF011F910895882319F080E057
:1006200066EA02C080E067EA0E94EF0108950F9336
:100630001F930E942A0280E091E00E94CD0286E191
:1006400066E10E94F50204E011E0C8010E94CD02BB
:100650008BE06BE00E94F502C8010E94CD0280E0B1
:0C06600090E01F910F910895F894FFCFD7
:10066C00737373005777772E456C6173612E6972C3
:02067C0000007C
:00000001FF
